:100000000C943B030C9458030C9458030C94580321
:100010000C9458030C9458030C9458030C945803F4
:100020000C9458030C9458030C94A60F0C945F1571
:100030000C946A2A0C9458030C9458030C9458039B
:100040000C9458030C9458030C9458030C945803C4
:100050000C9458030C947F100C9458030C94580380
:100060000C9458030C9458030C9458030C945803A4
:100070000C9458030C9458030C9458030C94580394
:100080000C9458030C9458030C9458030C94580384
:100090000C9458030C9458030C9458030C94580374
:1000A0000C9458030C9458030C94580305010980D0
:1000B000A101850319012AB700150126B700950192
:1000C00075108100C0050C0901A101850419012AE0
:1000D000A002150126A002950175108100C00660DE
:1000E000FF0961A1010962150026FF00952075082E
:1000F00081020963150026FF00952075089102C052
:1001000005010906A101050719E029E715002501E8
:10011000950875018102950175088101050719008F
:1001200029FF150026FF00950675088100050819AE
:1001300001290515002501950575019102950175A7
:10014000039101C000DA028180D9F1DB20A4A62E40
:10015000AF00A0C0D30000A1C8D30000AED580A8D6
:100160001F408D142000FD377A585A000004E6D64F
:10017000B4460200210116000000742FE5A3E0013F
:100180000800965D003D8889C65436C3174FE4E6E3
:10019000286A434567766436C434F79395DE6E2E3D
:1001A00012F87D13934D0516C6BC5AEE7BFAC8EAC9
:1001B000959826AE71555FA60E1B66F0DC51FEE9E0
:1001C000525EEACB250D0C9CCD9546C639E414A0B1
:1001D0000089A2F94894F5214251035641E9788CEF
:1001E000F1593F055624243B9B26CC23BB2E761089
:1001F000E3F4188519F65D7A4EC54BCB079348DEBC
:10020000847B68DAF3BA3280372CC99043784BC8C4
:100210004A71CE53EEB036E4EBA17100000077399D
:10022000E61457B92ADA0001B20189020000CC6253
:10023000E23AB1C467FB020000000004595A010011
:100240000100BB05900F750F000002000200B7050A
:10025000900F750F000003000100BC05900F750F93
:10026000000004000200A105900F750FA306050011
:100270000100BD05900F750F000006000200A305E8
:10028000900F750F000007000200B905900F750F61
:10029000000008000100BE05900F750F000012005D
:1002A0000200BF05900F750F000013000200C1058A
:1002B000900F750F000014000100C305900F750F1B
:1002C00000001500000000002906A316000000AF82
:1002D00000AE00000000F0F84CC6821A121A0206A6
:1002E0000C3860C08000000000000000000000002A
:1002F00000000000000000000000000000000000FE
:1003000000000000000000000000000000000000ED
:1003100000000000000000FCFCC0E0B01C0C00006D
:1003200000FCFC4444444C4C0000C0F03C0C0C3C31
:10033000F0C000000000000000000000000000000D
:1003400000000000000000000000000000000000AD
:100350000000000000000101000003FEC04040401A
:10036000202000F8010302060C183060C080000055
:1003700000000000000000000000000000404040BD
:10038000404040404040404040404040404040406D
:10039000404040404040404F4F404143474E4C401A
:1003A000404F4F4848484C4C40404F4F41414141DD
:1003B0004F4F40404040404040404040404040401F
:1003C000404040404040404040404040404040006D
:1003D00000000000000000000000000003061C38C0
:1003E00068C88C0603068CD890302060C0818306D4
:1003F0000C183060C0000000000000000032F282E3
:100400000282E2E2E2820282F27202C2E23212125C
:100410001212E2C20202E2F212121212F2E202021C
:10042000F2F20282C27232020202E2F212121212DC
:10043000326202F2F202020202F2F20202C2E2327C
:1004400012121232E2C20202E23212121232E2003E
:10045000000000000000000000000000000000009C
:10046000606061273C26636061273C262300010110
:100470000302060C090B0E00000000000000071F1D
:10048000381F0700071F381F0700000F1F302020EC
:1004900020301F0F00003F3F0303030F3F300000D9
:1004A0003F3F03070E1C3830000018312123232260
:1004B0003E1C003F3F010101013F3F00000F1F3084
:1004C000202020301F0F00003F3F060602030100DE
:1004D00000005F006000610054005C005D005E0091
:1004E000550059005A005B00560062006300670027
:1004F0005700A900AA0009025B00030100A0FA0945
:10050000040000010301010009211101000122443E
:10051000000705810308000109040100020300002F
:100520000009211101000122220007058203200099
:100530000107050303200001090402000103000074
:100540000009211101000122320007058403200067
:100550000112010002000000084C42014B010001A1
:100560000203011C037600690061006C003A00661A
:100570000036003400630032006200330063000084
:10058000002203530065006100670075006C006C79
:100590000020004D006100630072006F0070006178
:1005A00000640000001A034B006500610020005742
:1005B000006F0072006B00730068006F0070000035
:1005C0000004030904000000000000000000000017
:1005D000000000000000000000000000000000001B
:1005E0000000000000000000007E0F00D4FFFFFFAD
:1005F000C70000007800000000000000002A2B283F
:1006000000000000000000000000000000000000EA
:1006100029000000002C1E34202122243426272506
:100620002E362D3738271E1F20212223242526333E
:1006300033362E37381F0405060708090A0B0C0D40
:100640000E0F101112131415161718191A1B1C1D52
:100650002F3130232D350405060708090A0B0C0D30
:100660000E0F101112131415161718191A1B1C1D32
:100670002F3130354C0011241FBECFEFDAE0DEBF42
:10068000CDBF11E0A0E0B1E0EAE5FAE602C00590D6
:100690000D92A838B107D9F727E0A8E8B1E001C06A
:1006A0001D92A230B207E1F70E94912A0C94D73430
:1006B0000C940000482F209100079091B70659E054
:1006C000291302C080E0089530E0529FF001539F4B
:1006D000F00D1124E854F94F8181681306C0808120
:1006E000481303C085818111EECF2F5F3F4F2770E4
:1006F000E7CFE8EDF0E080818E7F80831092E2000A
:100700001092DA001092E100A0EEB0E08C918160CE
:100710008C9380818F77808319BCA7EDB0E08C919A
:100720008E7F8C9380818F7E80831092A0060895A7
:100730002091E4003091E50095E6A9012091EC00BC
:10074000822F817020FF06C08091E80080FF06C0E4
:1007500080E008952091E80022FD1AC08091AD0646
:10076000882389F0853089F08091EB0085FD0FC0EA
:100770002091E4003091E50042175307F9F29150BF
:10078000E1F684E0089582E0089583E0089581E031
:1007900008958091AF0687FF13C08091E80082FF23
:1007A00006C08091E8008B778093E80004C08091B8
:1007B000AD068111F2CF08958091AD068823D9F35B
:1007C0008091E80080FFF8CF8091E8008E77ECCF31
:1007D000982F9093E900242F762F50E0891731F05D
:1007E0007091EC002091ED005091F00021FD07C0C8
:1007F0009F5F973071F78093E90081E00895309111
:10080000EB003E7F3093EB003091ED003D7F309365
:10081000ED003091EB0031603093EB007093EC0011
:100820002093ED005093F0002091EE0027FDE0CFE3
:1008300080E00895B0E0A0E0E0E2F4E00C94F93349
:10084000C8EDD0E088818F7E8883E7EDF0E080817D
:100850008160808384E082BF81E08093A0068881EC
:100860008E7F888302EE10E0F80110821092DA0089
:1008700081EEC82ED12CF601108288818F77888373
:1008800088818068888388818F7D888319BC1092D5
:10089000AD061092AE061092AC061092AB0690EE2A
:1008A000E92EF12CF70180818B7F80838881816024
:1008B000888342E060E080E00E94E803F6018081E6
:1008C0008E7F8083F8018081816080838081886051
:1008D0008083F70180818E7F808388818061888317
:1008E000CDB7DEB7E8E00C941534FC018091B50675
:1008F0009091B60686179707A0F06115710529F447
:100900009091E8009E779093E80090E06115710562
:1009100051F4911108C08091E80082FF34C080E05A
:100920000895BC01F2CF8091AD068823C1F18530D6
:10093000C1F18091E80083FD30C08091E80082FD24
:10094000EACF8091E80080FFE1CF8091F300209111
:10095000F200382F6115710519F02830310558F073
:1009600091E02830310509F090E02091E8002E77E1
:100970002093E800CBCF81918093F1006150710901
:100980002F5F3F4FE7CF8091AD06882341F0853040
:1009900041F08091E80083FFBECF81E0089582E0BE
:1009A000089583E00895089508958091A20608951A
:1009B00087E797E7909301088093000888E19AE021
:1009C0000FB6F894A895809360000FBE90936000D6
:1009D000FFCF2FB7F89460919C0670919D0680918F
:1009E0009E0690919F062FBF0895ECE8F1E091914B
:1009F000891303C0DF0111971C9291E0E239F907D6
:100A0000B1F708959C01FC0132969FEF80E041917F
:100A1000461751F09F3F19F4411101C0982F8F5F85
:100A20008630A9F79F3F09F40895290F311D97FDDE
:100A30003A95F90162830895A3E0B0E0E2E2F5E0BF
:100A40000C94FF332091990630919A0628173907A4
:100A5000A1F090939A0680939906E0919706F09101
:100A60009806309751F024E029839B838A83008481
:100A7000F185E02DCE01019609952396E2E00C94D4
:100A80001B34A3E0B0E0E7E4F5E00C94FF332091E1
:100A900095063091960628173907A1F0909396068F
:100AA00080939506E0919706F0919806309751F063
:100AB00023E029839B838A830084F185E02DCE0186
:100AC000019609952396E2E00C941B34E091970679
:100AD000F0919806309729F00190F081E02D09956A
:100AE000089580E008954115510511F0FA01099526
:100AF0000895CF93DF93EC014091850650918606CF
:100B000060918706709188062FB7F89480919C06B3
:100B100090919D06A0919E06B0919F062FBF841BC9
:100B2000950BA60BB70B843F9140A105B10518F5B5
:100B30008091850690918606A0918706B0918806DF
:100B40008093810690938206A0938306B0938406D7
:100B500084EF91E0A0E0B0E080937D0690937E0664
:100B6000A0937F06B0938006D0938D06C0938C0629
:100B7000DF91CF9108950E94E904609381067093FC
:100B80008206809383069093840682E390E0A0E03F
:100B9000B0E0E2CFFC018481862351F49281992355
:100BA000B9F06923808583FF05C081E061110FC022
:100BB00080E00895892F8F7092959F70982B862FD3
:100BC0008F7062956F70682B81E09613F1CF089556
:100BD00081E0FDCFDC016091750680917606962F4D
:100BE000891301C00895292F30E0F901EE0FFF1F8E
:100BF000E359F94F408151814A175B07A1F487E01F
:100C00008A9FA0018B9F500D112444535A4F81E0BD
:100C1000FA0184839613E6CF2F5F3F4F237033276B
:100C20002093750608952F5F3F4F922F9370D8CF72
:100C30001092CA051092C905ECECF5E0858181118E
:100C400002C014821682379686E0E430F807B1F7C6
:100C50000895B0E0A0E0EFE2F6E00C94F7338FEFF8
:100C60009FEF4430510508F469C04091510341FBA6
:100C7000882780F990E0880F991F42FB002700F930
:100C800010E0000F111F000F111F802B912B40FB54
:100C9000CC24C0F8D12C8C299D2943FB222720F994
:100CA000C22FE0E0DE2F53E0CC0FDD1F5A95E1F7B5
:100CB0008C2B9D2B44FBAA27A0F9B0E0E4E0AA0FFF
:100CC000BB1FEA95E1F78A2B9B2B45FBEE27E0F94A
:100CD000F0E0A5E0EE0FFF1FAA95E1F78E2B9F2B0A
:100CE00046FB222720F930E0B6E0220F331FBA95E9
:100CF000E1F7822B932B47FB222720F930E0369532
:100D0000322F222737952795822B932B2091520340
:100D1000322F3170F32EE82EF92A26952170B22E4B
:100D2000BB0CA82EBF28C501BB0CAA0BBB0BFB013B
:100D300080839183A283B38390E080E0CDB7DEB758
:100D4000EAE00C9413348091A1059091A205909350
:100D50001301809312010895E6EFF1E090E080E046
:100D600060E47DE147E65DE126EB3CE17783668365
:100D700051874087338722879787868701967096A9
:100D80008830910599F7089581152CE7920741F471
:100D900020917B0630917C06232B11F490E080E0BB
:100DA000089580E00895F894E82FE295EF70F0E060
:100DB00031A1282F2F7081E090E001C0880F2A9583
:100DC000EAF7982F9095932391A392A1892B82A360
:100DD000789408959091510392FF10C041E0282F1C
:100DE0002471243009F040E031E0282F28712830A8
:100DF00009F030E0431711F02CE0822793FF10C078
:100E000041E0282F2471243109F040E031E0282FFF
:100E10002871283109F030E0431711F02CE08227C7
:100E20003091520330FF10C051E0282F2171213042
:100E300009F050E041E0282F2871283009F040E007
:100E4000541711F029E0822731FF10C041E0282F0C
:100E50002171213109F040E031E0282F287128313B
:100E600009F030E0431711F029E0822794FD877ED6
:100E7000089582389105B9F1B0F48133910509F4F0
:100E80007DC048F48932910509F46DC08A3291051C
:100E900009F47BC008958533910509F45FC0893357
:100EA000910509F10895833E9105D9F138F4803E0A
:100EB000910529F1823E910579F10895863E9105CB
:100EC000D9F1873E910509F43EC0843E910541F574
:100ED0002091520321FF24C08091510384FD19C049
:100EE00087EE90E0089520915103237009F05AC0D5
:100EF0002091520323FF14C089E290E008952091CD
:100F0000510320FD38C03091520330FF09C024FF47
:100F100043C090E080E008952091510322FDF7CF77
:100F200008952091510322FD3AC03091520330FDC3
:100F300039C024FFF5CFEDCF2091510323FFF0CF2F
:100F400024FDE7CFCDCF2091510323FD2EC030915A
:100F5000520331FFEECF84EE90E0089520915103CB
:100F600025FFDECFC9CF2091510325FD21C020915F
:100F7000520323FFD5CF89E390E0D2CF20915103D4
:100F800026FFCECF8AE290E008952091510326FFFC
:100F9000C7CF81E390E0089583EE90E0089582EE5C
:100FA00090E0089580EE90E0089586EE90E0089538
:100FB00085E390E008951F93CF93DF930E94390754
:100FC000EC01C11580E5D807F0F5C11580E4D8071C
:100FD00008F09CC0C03ED10520F5CD3CD10508F0FD
:100FE00082C0C83AD10578F4C53AD10508F073C07B
:100FF000C130D10519F1209709F1C430D105F0F4C1
:10100000D0E0C0E01BC0C33CD105D0F7C85AD0E047
:10101000CC0FDD1FCE5DDE4F0990D881C02DD4648A
:101020000DC0C11580E2D80708F0D1C0C11581E01C
:10103000D80708F05AC0C83ED10510F7CE01DF919D
:10104000CF911F910895C03682E5D80718F5C034B6
:1010500082E5D80708F06BC0C03282E5D80708F0F7
:101060005FC0C11582E5D80708F497C02C2F2695DC
:10107000269580E2289F900111248C2F8370C1E077
:10108000D0E002C0CC0FDD1F8A95E2F7C22BD32B34
:10109000DD68D4CFC03A82E5D80760F4C03882E575
:1010A000D80708F459C0CF71D0E0DC2FCC27C46F2B
:1010B000D06AC4CFC03C82E5D80708F462C0C03E05
:1010C00082E5D80708F09CCFDC2FCC27CC27DF7136
:1010D000C06FD06AB3CFC55AD0E0C15EDE4FC881C1
:1010E000D0E0D064ABCFD065A9CF8D2F0E94EA06A7
:1010F000182FCE0199270E943907C12FD0E0DC2F8D
:10110000CC27CC27DF71C82BD92B98CFCE019927BC
:101110000E943907CC27DF70C82BD92BD06A8ECF1D
:10112000CF71D0E0DC2FCC27C16FD06A87CF2C2FB6
:1011300026952695277080E2289F900111248C2FF8
:101140008370C1E0D0E002C0CC0FDD1F8A95E2F7CA
:10115000C22BD32BDC6872CF2C2F269526952770B7
:1011600080E2289F900111248C2F8370C1E0D0E091
:1011700002C0CC0FDD1F8A95E2F7C22BD32BDA68B1
:101180005DCF8C2F8F710E94EA06C82FD0E0DC2F34
:10119000CC27CC27DF71D06251CF8C2F8F710E946A
:1011A000EA0655E0D695C7955A95E1F7CF70D0E09D
:1011B000DC2FCC27282F30E084FF05C044E0220F2D
:1011C000331F4A95E1F7C22BD32BD06937CF8D2F30
:1011D0008F710E94EA06182FCE0199270E943907C5
:1011E000C12FD0E0DC2FCC27CC27DF71C82BD92B27
:1011F000D2CF8091B701882331F01092B7011092BD
:10120000B6011092B5010895809590910107982339
:10121000909301070895809590918005982390936D
:101220008005089590918005892B8093800508950D
:101230001092AC011092AB011092AA010895909106
:10124000A901292F282321F0809589238093A901C2
:101250000895809100079091B706981301C00895F2
:101260008F5F8770FACFA82FA77023E09695879598
:101270002A95E1F7FC01EE0FFF1FE80FF91FE60FBB
:10128000F71F50E040E080E0219130E00A2E02C0DC
:10129000369527950A94E2F721703327042E01C072
:1012A000220F0A94EAF7822B4F5F5F4F43305105BC
:1012B00059F70895903FB9F0943070F4843098F461
:1012C00044E0949F900111246AE971E0820F932F0A
:1012D000911D0E94330908959C5F923020F467E9C4
:1012E00071E090E0F6CF80E00895262F277091E01E
:1012F00001C0990F2A95EAF723E0769567952A951C
:10130000E1F7FB01EE0FFF1FE60FF71FE40FF51FDC
:1013100050E040E0682F70E08191DF0111979B0160
:10132000042E02C0369527950A94E2F72170219584
:101330002827292328272C934F5F5F4F43305105DF
:1013400059F70895282F862F903F71F0943068F454
:10135000243050F434E0939FB0011124620F711DCA
:101360004AE951E00E94750908959C5F9230E0F7C8
:10137000622F70E047E951E0F5CF8093C2010895F4
:101380009091C20121E030E0F90101C0EE0F8A9591
:10139000EAF7D90102C0AA0FBB1F6A95E2F7EA2B50
:1013A00001C0220F4A95EAF7892F8E23E81305C062
:1013B000292B822F0E94BD09089520952923F9CF5A
:1013C00021E030E001C0220F8A95EAF72095809154
:1013D000C20182230E94BD0908959091AC018095BD
:1013E00089238093AC01282F277069F4891759F05D
:1013F0009091520392FF07C08695869586950E942C
:10140000E0090E941809089521E030E001C0220F90
:101410008A95EAF78091C201822B0E94BD09089546
:101420008093C101089592959F70963091F058F481
:10143000925F9F70923058F4803F19F030F4883EEC
:1014400030F481E008959A5FF4CF843FD1F380E0D7
:101450000895883EB0F3813FD1F7F3CF9C013A95D0
:1014600021153F4150F5FC01EE27F170BC016627C4
:101470007270AC01442754709C012227387094FF8D
:101480000EC080E1EF2B09F480E0672B09F0806249
:10149000452B09F08064232B89F08068089581E052
:1014A000EF2B09F480E0672B09F08260452B09F0EF
:1014B0008460232B19F08860089580E008950F93CD
:1014C0001F93CF93DF938B01EA019091AD06943087
:1014D00061F58093E9008FEF9091E800815095FDD0
:1014E00006C095ED9A95F1F700008111F5CF809136
:1014F000E80085FF1AC00E949803811111C08091F5
:10150000E80085FD06C08091E8008E778093E800B2
:10151000F2CFF80181918F018093F100219779F743
:101520008091E8008E778093E800DF91CF911F9142
:101530000F91089543E050E0BC0184E00E945F0AEF
:101540000895CF93DF93EC0148E050E0BC0181E0C7
:101550000E945F0A88E0FE01A3EAB6E001900D92C6
:101560008A95E1F7DF91CF910895019708F40895E6
:10157000EFE9FFE03197F1F700C00000F6CFCF931D
:10158000C82F6FEF811165E285E290E00E949B34E5
:101590006FEFC11165ED86E290E00E949B346FEF22
:1015A000C11164E087E290E00E949B34CF910895DE
:1015B000CF93DF93CDECD1E060E0CE010E949B346D
:1015C0002196C11584E0D807B9F7DF91CF9108952E
:1015D0000F931F93CF93DF93142F022F8430F0F4D7
:1015E00061111CC094E0899FE0011124C755DF4FB1
:1015F00082E090E0442311F090E080E0632F8C0FB4
:101600009D1F0E949B3483E090E0112311F081E044
:1016100090E0602F8C0F9D1F0E949B34DF91CF9133
:101620001F910F9108951F93CF93DF93122F843052
:10163000E8F46430D8F44430C8F428E0629FE00154
:10164000112450E0440F551FC40FD51F20E2829F84
:10165000C0011124C80FD91F632FCE0189960E94A3
:101660009B34612FCE018A960E949B34DF91CF91EB
:101670001F91089585E290E00E947D34853289F4BF
:1016800086E290E00E947D34853D59F487E290E047
:101690000E947D3491E0843009F090E0892F8170C0
:1016A000089580E0FCCFFF920F931F93CF93DF93B9
:1016B000F42E843040F5611126C024E0829F800121
:1016C000112407551F4F82E090E0442311F090E071
:1016D00080E0800F911F0E947D34C82FD0E0DC2F66
:1016E000CC2783E090E0FF2011F081E090E0800FB4
:1016F000911F0E947D349E01282BC901CDB7DEB712
:10170000E5E00C94183490E080E0F8CF0F931F933D
:10171000CF93DF93843038F5643028F5443018F5E2
:1017200028E0629F8001112450E0440F551F040FF0
:10173000151F30E2839FC0011124080F191FC80133
:1017400089960E947D34C82FD0E0DC2FCC27C801B9
:101750008A960E947D349E01282BC901DF91CF918A
:101760001F910F91089590E080E0F8CF462F672FEA
:101770002091E0013091E101232BC9F4703F39F44D
:10178000403FA9F48091E2019091E3010895743003
:1017900038F4443060F4843050F40E94860B08958D
:1017A0007D3F41F4411103C041E0843048F090E0B6
:1017B00080E008957C3FD9F74111F9CF8430B8F724
:1017C00060E00E94530B0895CF92DF92FF920F9337
:1017D0001F93CF93DF936C010091C2018091C101EF
:1017E000082BC3E0D0E010E0FC2EC8010C2E02C094
:1017F000959587950A94E2F780FD0CC02197A0F794
:10180000F12C8F2DDF91CF911F910F91FF90DF90E1
:10181000CF900895B6018C2F0E94B60B0E94DB0773
:10182000019761F3EECFCF93DF93EC010E94E40BBD
:10183000BE010E94B60B0E94DB07DF91CF91089595
:10184000FC018481882371F087819085009729F0BD
:101850000E94DB070E94130A0895808191810E94F3
:10186000130CF8CF80E00895A6E0B0E0EAE3FCE0D6
:101870000C94FE3349835A8349815A819923A1F0FC
:10188000222391F0CA010E94E40B182F682F89814E
:101890009A810E94A20969817A81812F0E94B60BE8
:1018A0002696E3E00C941A34CA010E945A09182FB4
:1018B000F2CFFC01262F87819085009741F440816B
:1018C000518162817381848195810E94340C0895D5
:1018D0000F931F93CF93DF9301EA15E0C9EBD0E09C
:1018E000CE010E947D34F80161918F01681719F0D3
:1018F000CE010E949B342196CD3DD10589F7DF9121
:10190000CF911F910F9108950F931F93CF93DF9362
:1019100001EA15E0C9EBD0E0CE010E947D34F80168
:1019200081938F012196CD3DD105B1F7C8E4D2E076
:10193000FE0185919491009711F0FC0109952C9678
:10194000F2E0C83DDF07A1F7DF91CF911F910F9122
:1019500008959B01883070F49AE0899FB0011124AA
:1019600063527F4F4AE050E0C9010E946D3490E01D
:1019700080E008958FEF9FEF0895AAE0B0E0E3ECD8
:10198000FCE00C94FF339C0137552F3F310509F0E3
:1019900068F4BE016F5F7F4F0E94A90C892B31F460
:1019A00089859A852A96E2E00C941B348091B905CA
:1019B0009091BA05F7CFAAE0B0E0E1EEFCE00C941C
:1019C000F53309ED12E087ECC82E82E0D82E9DE7B2
:1019D000E92EFF24F39427E0922E36ECA32E32E07A
:1019E000B32E88248394D6010D931D936D014AE094
:1019F00050E0B701CE0101960E946D34F80138968F
:101A0000DF01892D1D928A95E9F789819A81D80194
:101A100011969C938E938F8112968C9312978D8141
:101A200013968C931397888514968C9314978985B5
:101A300015968C9315978B819C8117969C938E930A
:101A4000169718961C9218978A8587FF3CC01E9699
:101A50001C921E921D9780FF03C0D80118968C928D
:101A600081FF04C0F80190859260908782FF07C0D3
:101A7000D80118969C911897946018969C9383FFB0
:101A800004C0F80190859860908784FF07C0D80152
:101A900018969C911897906118969C9385FF04C0A6
:101AA000F801808580628087015F1F4FFAE0EF0EAA
:101AB000F11C8DECE81681E0F80609F094CF2A9627
:101AC000ECE00C941134F801B686A586C4CFAAE0E8
:101AD000B0E0EDE6FDE00C94F933E6E7F2E080E5F6
:101AE000DF011D928A95E9F7ECECF5E088E3DF0170
:101AF0001D928A95E9F786E7C82E82E0D82E7F01ED
:101B00000DE211E0F701D182C0824AE050E0B80155
:101B1000CE0101960E946D3488E0FE013196D60117
:101B200001900D928A95E1F789859A85D7011396E0
:101B30009C938E931297BAE0CB0ED11CE7E0EE0E89
:101B4000F11C065F1F4F0D37F1E01F07D9F62A96EB
:101B5000E8E00C941534B0E0A0E0E1EBFDE00C947B
:101B6000F9336C017B0164E670E088E70E94F5328E
:101B70008C01E601EC0CFD1C17FD0BC0FE018491ED
:101B800064E670E00E9461338C012196CE15DF057A
:101B900099F70E94D73381E00115110509F080E023
:101BA000CDB7DEB7E8E00C94153480917E059091B6
:101BB0007F05911103C091E089270895882369F07A
:101BC00062E070E080ED92E00E94AB0D811103C0F5
:101BD00080917E05089510927E0580917E05EBCF61
:101BE000CF93C0917E0580917F058823D1F00E941C
:101BF000E904605A75418F4F9F4F60937A05709347
:101C00007B0580937C0590937D05C11108C062E03F
:101C100070E08EEC92E00E94AB0D811105C0C09186
:101C20007E058C2FCF91089581E080937E05F7CFBC
:101C30002F923F925F926F927F928F929F92AF927C
:101C4000BF92CF92DF92EF92FF920F931F93CF93A9
:101C5000DF9380917F05882309F44CC086E793E0E9
:101C60009093550380935403209178053091790522
:101C7000DC0190E080E041E050E0FC01EE52FD4FDD
:101C8000E4916D91E61791F0ED012197E883BC0195
:101C9000E5E076956795EA95E1F7EA0102C0CC0F99
:101CA000DD1F6A95E2F7BE012C2B372B01968115BB
:101CB000D2E09D0711F73093790520937805232B07
:101CC00059F580917E058823A9F00E94E9040091CE
:101CD0007A0510917B0520917C0530917D05601B74
:101CE000710B820B930B6F3F7F4F8F4F9F4710F409
:101CF0000E94D50DDF91CF911F910F91FF90EF9032
:101D0000DF90CF90BF90AF909F908F907F906F901B
:101D10005F903F902F900895809177058111D1CFEA
:101D20000E94F00D2091780530917905211531053B
:101D300041F280E041E050E0082F10E01A01082E47
:101D400002C0220C331C0A94E2F7B1016223732310
:101D5000672B11F48F5FF0CF9091760590FF95C0BF
:101D6000880F880F880F80930D0110921001895FF2
:101D700080930E0183E08093110124E630E047E078
:101D800050E06BE071E088E70E948F33892B09F007
:101D900098CFA80125E0440F551F2A95E1F78091BF
:101DA000760580FF84C0E6E5F3E080E2DF011D9266
:101DB0008A95E9F7A4E7B1E000E711E088E7C82ECB
:101DC00081E0D82E97E0592E772473948D91E80105
:101DD00029918E01240F352F311D2A583C4FE82FB1
:101DE000F0E0EA5AFC4F90E080E0652C681A872CFE
:101DF000082E01C0880C0A94EAF77901A12CE701AA
:101E0000B9907E01B820662D6A196770962E062E4D
:101E1000000C770BDB2D01C0DD0F9A94EAF771956A
:101E2000619571096770772701C0B6946A95EAF7E2
:101E3000BD2A6081962E9B289082A39468E0A6120A
:101E4000DECF019631968830910579F6CA16DB0609
:101E500009F0BCCF04E610E020E230E046E553E0B4
:101E600060E488E70E94B033892B09F02ACFE101B2
:101E7000C095D0958091780590917905C823D92394
:101E8000D0937905C09378051CCF8295880F807612
:101E900080930D01980136952795369527952093C7
:101EA0001001815E80930E012093110166CF4A5884
:101EB0005C4F04E610E020E230E0D2CF9091520374
:101EC00092FB222720F9281779F080FB92F9909352
:101ED0005203609151037091520384E090E00E949C
:101EE000B93482E00E94ED090895DA019C012E5F69
:101EF0003F4FF90145915491F90125913491A21771
:101F0000B30758F0FC013496859194910E945D349A
:101F10000E94680C90E080E008958FEF9FEF089595
:101F2000DB01FC013296259134914217530758F09A
:101F3000FC01349665917491A901CD010E945D3434
:101F400090E080E008958FEF9FEF08951F920F9229
:101F50000FB60F9211242F933F934F935F936F937C
:101F60007F938F939F93AF93BF93EF93FF93809152
:101F7000E10082FF09C08091E20082FF05C08091EC
:101F8000E1008B7F8093E1008091DA0080FF24C024
:101F90008091D80080FF20C08091DA008E7F8093EE
:101FA000DA008091D90080FF9DC080E189BD82E187
:101FB00089BD09B400FEFDCF81E08093AD0680911C
:101FC000A006811109C00E9479030E941A04809121
:101FD000E20084608093E2008091E10080FF17C0FE
:101FE0008091E20080FF13C08091E2008E7F809399
:101FF000E2008091E20080618093E2008091D8004D
:1020000080628093D80019BC85E08093AD068091F2
:10201000E10084FF2BC08091E20084FF27C080E1B3
:1020200089BD82E189BD89B5982F917080FFFBCF72
:102030008091D8008F7D8093D8008091E1008F7EC1
:102040008093E1008091E2008F7E8093E200809196
:10205000E20081608093E2008091AE06882309F45B
:1020600047C084E08093AD068091AD068091E10089
:1020700083FF27C08091E20083FF23C08091E100AD
:10208000877F8093E10082E08093AD061092AE06D8
:102090008091E1008E7F8093E1008091E2008E7F4D
:1020A0008093E2008091E20080618093E20042E050
:1020B00060E080E00E94E8038091F00088608093F7
:1020C000F000FF91EF91BF91AF919F918F917F9120
:1020D0006F915F914F913F912F910F900FBE0F9095
:1020E0001F90189519BC1092AD061092A00674CFDF
:1020F0008091E30087FD93E09093AD06B5CF78948F
:102100001F921FB61F9211248F939F93AF93BF937B
:1021100080919C0690919D06A0919E06B0919F068D
:102120000196A11DB11D80939C0690939D06A093DE
:102130009E06B0939F06BF91AF919F918F911F9084
:102140001FBE1F9018959C014FB7F89480919C0674
:1021500090919D06A0919E06B0919F064FBF821B55
:10216000930B08952FB7F89480919C0690919D064B
:10217000A0919E06B0919F062FBF0895A4E0B0E005
:10218000E4ECF0E10C94F83319821A821B821C8271
:1021900088E5C82E81E0D82E10E000E0EE24E3941C
:1021A000F12CF60181916F018F3F09F446C0F8943C
:1021B000E82FE295EF70F0E021A18F70A70102C037
:1021C000440F551F8A95E2F7CA01922F982B91A3CD
:1021D00092A18095892382A3789400C0ECE5F1E078
:1021E000B12C31E021912F3F09F453C0A22FA295C9
:1021F000AF70B0E090968C9190E02F7002C09595F2
:1022000087952A95E2F780FD44C0832FB82A330FC3
:1022100051E0E036F50731F7F601319780818F3FC5
:1022200011F00E94D30680EA8A95F1F7E1E0F0E030
:10223000EC0FFD1FE00FF11FB0820F5F1F4F043046
:10224000110509F0AECF44E050E0BE016F5F7F4F53
:102250008DEB91E00E945034892BF9F089819A81AD
:10226000AB81BC818093BD019093BE01A093BF015F
:10227000B093C00181E08093BC010E94B2109093A2
:10228000BB018093BA0110E0812F2496E9E00C9401
:10229000143480E0BBCF10E026C01091BC011123A4
:1022A00091F38091BA019091BB010E94A310059710
:1022B00050F344E050E06DEB71E08CED91E00E9452
:1022C0005034892B41F38091BD019091BE01A091C2
:1022D000BF01B091C0018093DC019093DD01A09318
:1022E000DE01B093DF011092BC01CECFCF93C82F97
:1022F0008091520382FF0CC08091B7018C1741F08E
:102300000E94B2109093B6018093B501C093B701BB
:10231000CF9108959091B701292F282361F08095DE
:1023200089238093B701882339F00E94B2109093DB
:10233000B6018093B501089590E080E0F8CF9091C8
:10234000520392FF10C098E0899F90011124622BE4
:102350006093AC010E94040A0E94B2109093AB01FA
:102360008093AA0108950E94040A08958091A3050C
:102370009091A405892B89F00E94B2102091B5019B
:102380003091B601AC01421B530B81E02091A305B3
:102390003091A4054217530708F480E08170089536
:1023A000CF9380918005C0910107C82B8091B70120
:1023B0008823E9F08091A3059091A405892B29F049
:1023C0000E94B61181110E94F9088091B701C82BB3
:1023D00020E08CE891E0FC013191CF0131112F5FB9
:1023E000F1E082399F07B9F721110E94F908809125
:1023F000890680958C2390918A06892B80938A0187
:1024000048E050E06DEA71E08AE891E00E945034C3
:10241000892BA9F088E0EAE8F1E0ADEAB1E00190AB
:102420000D928A95E1F7E0919706F0919806309722
:1024300031F00280F381E02D8AE891E00995CF9197
:102440000895CF93DF93EC014A855B856E857F8588
:102450000E9473058B810E9404098C810E940B09E4
:102460000E94D01186E0FE0111928A95E9F7DF9172
:10247000CF910895CF93DF93EC018D8181FD14C03E
:1024800082608D83809101079B81892B8093010756
:102490008C810E9412090E94D011488559856E8551
:1024A0007F85CE010E9473051092940610929306C8
:1024B0008D8180FD03C0CE010E942112DF91CF915A
:1024C000089580911401877F8093140182E00E9417
:1024D00004098091140184FF06C08F7E809314014B
:1024E00082E00E9412098091140185FF06C08F7D51
:1024F0008093140180E20E9412090E94D011089575
:1025000010928005ECE8F1E086E0DF011D928A95EB
:10251000E9F790E080E00E94410590E080E00E94B1
:102520001C05109201070E94D0110895AAE2B0E0A4
:10253000ECE9F2E10C94FE338FEA96E02091F10091
:10254000DC012D93CD01B6E0873B9B07B9F7809165
:10255000B006833009F472C0B8F4813009F449C080
:10256000823009F4B3C08091E80083FF96C2809165
:10257000AF069091B0069A3008F08FC2E92FF0E0D4
:10258000E752FB4C0C943A348A3009F48EC08B30FD
:1025900009F471C0893039F78091AF06813219F79B
:1025A0008091B3069091B406009711F00297D9F686
:1025B0008091E800877F8093E8008091E80082FFA7
:1025C00038C09091F3008091F200029731F480912D
:1025D000F100813011F0863021F48091F100809378
:1025E000A2068091E8008B778093E8000E94C903DF
:1025F000BACF8091AF06813A09F0B5CF8091E8005B
:10260000877F8093E8008091B3069091B406892B70
:1026100061F468E083EA96E070E00E9475048091BE
:10262000E8008B778093E8009ECF60E090E080E048
:10263000F3CF8091AD068111C0CF95CF8091AF06C9
:10264000813A09F090CF8091B3069091B406892B1E
:1026500009F089CF8091E800877F8093E80080911E
:10266000E80080FFFCCF809116018093F1008091FB
:10267000E8008E77B9CF8091AF06813209F073CF31
:102680008091B3069091B406892B09F06CCF8091AC
:10269000E800877F8093E8000E94C9038091B1061B
:1026A000809316010E9480125ECF8091AF06813226
:1026B00009F059CF8091E800877F8093E8000E945D
:1026C000C9038091B2068093A1064DCF8091AF06D9
:1026D000813A09F048CF8091E800877F8093E80035
:1026E0008091E80080FFFCCF8091A106BECF8038AA
:1026F00099F0823809F0D1C18091B3068F7087308C
:1027000008F0CBC18093E9008091EB0085FB88271E
:1027100080F91092E90006C08091AB069091AC065A
:10272000911182609091E800977F9093E8008093E8
:10273000F1001092F1008091E8008E77AAC1882301
:1027400009F498C1823009F0A8C18091B1068111C5
:102750009BC18091B3068F702FEF280F263008F0B1
:102760009CC18093E9002091EB0020FF8DC1933044
:1027700031F48091EB0080628093EB0085C19091F1
:10278000EB0090619093EB0021E030E001C0220F5C
:102790008A95EAF72093EA001092EA008091EB0014
:1027A0008860EACF811179C11091B1061F778091BD
:1027B000E3008078812B8093E3008091E800877F9D
:1027C0008093E8000E94C9038091E80080FFFCCF5D
:1027D0008091E30080688093E30082E0111183E040
:1027E0008093AD065AC18058823008F056C12091BE
:1027F000B1063091B2062C3DE3E03E07A1F583E03F
:102800008A838AE289834FB7F894DE01139620E029
:102810003EE051E2E32FF0E050935700E49120FFB7
:1028200003C0E295EF703F5FEF708E2F90E0EA30CB
:10283000C0F0C7968D939D932F5F243159F74FBFFA
:102840008091E800877F8093E8006AE270E0CE0123
:1028500001960E9475048091E8008B778093E800D0
:102860001CC1C096E7CF8091B3069091B406432F68
:1028700055274330510509F44AC078F541305105D8
:1028800009F485C08BE590E0E6EFF4E042305105B5
:1028900009F003C12091E800277F2093E8002091F0
:1028A000B5063091B6068217930708F49C0140E004
:1028B0002115310509F070C041116EC08091E8000A
:1028C00082FDC9CF8091AD06882329F2853019F2A7
:1028D0008091E80083FFF2CFBECF4132510509F469
:1028E00047C04232510509F0D8C08330910508F045
:1028F000D4C0FC01EE0FFF1FE558FE4F0190F081A0
:10290000E02D88589E4FDC018C9190E01DC033274C
:1029100021303105E9F02115310579F022303105FA
:10292000F9F02330310509F0B8C0E3E6F5E0E491B1
:102930008E2F90E0E3E6F5E007C0E1ECF5E0E491EE
:102940008E2F90E0E1ECF5E0009709F4A6C0A2CF4D
:10295000E5EAF5E0E4918E2F90E0E5EAF5E0F4CFCA
:10296000E1E8F5E0E4918E2F90E0E1E8F5E0ECCFCE
:102970008330910508F091C0880F991FFC01EF5733
:10298000FE4F0190F081E02D89E090E083CF82E15D
:1029900090E0E1E5F5E07ECF8091AD06882309F473
:1029A0005ACF853009F457CF8091E80083FD53CF8B
:1029B0008091E80082FD82CF8091E80080FF78CF8F
:1029C0009091F3008091F2002115310519F08830C3
:1029D000910550F041E0089709F040E08091E8004F
:1029E0008E778093E80064CF44914093F100319654
:1029F000215031090196E8CF803809F04EC080910E
:102A0000E800877F8093E8008091AE068093F10014
:102A100092CE811142C01091B1061230F0F5809132
:102A2000E800877F8093E8001093AE060E94C903F8
:102A3000112311F084E005C08091E30087FDFACFF7
:102A400081E08093AD0642E061EC81E00E94E80302
:102A500042E261EC84E00E94E80342E261EC82E041
:102A60000E94E80342E260EC83E00E94E803809168
:102A7000AD0613C08091B106813079F481E09330C6
:102A800009F080E08093AC061092E9008091E800A4
:102A9000877F8093E8000E94C9038091E80083FF4C
:102AA0000AC08091E800877F8093E8008091EB0066
:102AB00080628093EB00AA96E3E00C941A341F9294
:102AC0000F920FB60F9211242F933F934F935F9362
:102AD0006F937F938F939F93AF93BF93CF93DF9326
:102AE000EF93FF93D091E900DF708091EC00C82F45
:102AF000C17080FDC0E81092E9008091F000877FEE
:102B00008093F00078940E9496121092E9008091D0
:102B1000F00088608093F000CD2BCF70C093E90067
:102B2000FF91EF91DF91CF91BF91AF919F918F91E5
:102B30007F916F915F914F913F912F910F900FBEB9
:102B40000F901F901895E1EAF5E0128E138E8FEA30
:102B500090E09183808385E0848F28E833E133839C
:102B6000228322E330E0378B268B28EC30E0318F54
:102B7000208F158E178E168E20E530E031A320A30E
:102B800082A30E94680C0E9480121092520310923D
:102B90005103E2E5F3E0808184608083609151031A
:102BA0007091520384E090E00E94B9340E94840C3A
:102BB0000895AEE1B0E0EFEDF5E10C94F1336090F3
:102BC0007B0670907C0681E090E090937C06809379
:102BD0007B06512C42EFA42E44E0B42E54EF852EF8
:102BE00054E0952E10E000E01DC04E2D21E030E0B5
:102BF000511008C0F701EE0FFF1FEC0DFD1D859170
:102C000094919C01642D852D0E94130B2FEFE21AE5
:102C1000F20A34E0E316F10441F70F5F1F4F04306E
:102C2000110571F0C80123E0880F991F2A95E1F77B
:102C3000FC01EE52FB4F6F01F12CE12C402ED5CF61
:102C400021E030E0511004C0F501859194919C0180
:102C500041E060E0852D0E94E80A21E030E051105B
:102C600004C0F401859194919C0140E060E0852DC1
:102C70000E94E80A5394F4E05F12B4CF0E94A315B7
:102C80001A8219821C821B821E821D8218861F8254
:102C900088EC90E09A8789870DED10E04AE050E0DB
:102CA000B801CE0101960E94BF34065F1F4F0D325E
:102CB00021E0120799F77E013BE0E30EF11C8AE068
:102CC000F70111928A95E9F74AE050E0B801C7018F
:102CD0000E94BF34065F1F4F0D37F1E01F07A1F7B9
:102CE0007E0125E1E20EF11C8AE0F70111928A953E
:102CF000E9F78FEF9FEF9A8F898F87E08E8F4AE0F9
:102D000050E0B801C7010E94BF34065F1F4F0D3C61
:102D1000F1E01F07A1F770927C0660927B066E9629
:102D2000E0E10C940D3480E00E94BF0A60E088E28C
:102D300090E00E949B340E94D9150E94D80A81E03D
:102D40000E94BF0A0895CF92DF92EF92FF928FEF19
:102D50009FEF4430510508F46CC0FB01C080D18066
:102D6000E280F3800E94801280915103C0FA80F9C2
:102D7000B701A601769567955795479540FB81F970
:102D8000B701A60122E076956795579547952A9554
:102D9000D1F740FB82F9B701A60133E0769567953C
:102DA000579547953A95D1F740FB83F9B701A601AE
:102DB000E4E07695679557954795EA95D1F740FBFE
:102DC00084F9B701A601F5E0769567955795479583
:102DD000FA95D1F740FB85F9B701A601A6E07695F3
:102DE000679557954795AA95D1F740FB86F9B701A6
:102DF000A601B7E07695679557954795BA95D1F7AF
:102E000040FB87F98093510380915203D0FA80F9F7
:102E1000D1FACC24C0F8C0FA81F9809352036091B2
:102E200051037091520384E090E00E94B93490E025
:102E300080E0FF90EF90DF90CF9008950E94801285
:102E40002FEF84E39CE0215080409040E1F700C0E8
:102E5000000088E19AE00FB6F894A895809360008E
:102E60000FBE90936000FFCF882321F00E940409D9
:102E70000E94D0110895882339F090910107982B72
:102E8000909301070E94D0110895882321F00E9499
:102E90000B090E94D0110895882321F00E94120985
:102EA0000E94D0110895882339F19CEF980F913A30
:102EB00028F40E94F5040E94D011089590E2980F22
:102EC000983050F4877091E001C0990F8A95EAF725
:102ED000892F0E940B09EFCF9BE5980F933028F4C0
:102EE00090E080E00E9441050895885A8B3120F4DB
:102EF00090E080E00E941C050895FF920F931F93BD
:102F0000CF93DF93F82E00918E0610918F06011556
:102F1000110509F449C010928D0610928C0610928A
:102F2000890610928A06D8011696CD91DC919E01F1
:102F30003A9521153F4108F4D07ED1E0C11101C07E
:102F4000D0E0D8011996ED91FC911A97309731F0A5
:102F50001B966D917C9180E00995D823DD2339F093
:102F60008CEF8C0F813A30F58C2F0E94F504FF20F6
:102F700099F0E0918E06F0918F06808584FD0CC05B
:102F800080918B06882341F0808191819C012150A2
:102F900031092F333E47A0F00E94D01110928F06C6
:102FA00010928E0610928B06C801CDB7DEB7E5E011
:102FB0000C9418340E94D0118C2F0E945317D7CF35
:102FC0000E947905E9CFCF93DF93EC010E9453175C
:102FD000CE010E942E0A9E01205E31092830310563
:102FE00010F0CD2B29F40E944517DF91CF91089561
:102FF0000E943417FACFCF93C82F8823A9F08CEF03
:103000008C0F813A98F4ECE8F1E082E991E02191AB
:10301000C21799F18E179F07D1F76C2F8AE891E0BC
:103020000E9402050E94D011CF91089580E28C0F7A
:10303000883048F4C77081E001C0880FCA95EAF76C
:103040000E941209EFCFEBE5EC0FE33040F4F0E023
:10305000E15EFE4F808190E00E944105E5CFC85AB5
:10306000CB3110F7EC2FF0E0EE0FFF1FEE5DFE4FBF
:10307000808191810E941C05D7CF8C2F0E94F5047E
:103080000E94D011CACF1F93CF93DF93182FC09106
:10309000C105D091C205893321F0C091BF05D091FF
:1030A000C005812F0E94FB17209739F4812F0E94C1
:1030B0005317DF91CF911F9108958FE99FE00197FA
:1030C000F1F700C000002197EFCFB0E0A0E0EBE601
:1030D000F8E10C94F733EC018AE0A82E2881222332
:1030E00009F48FC02130C9F599818A81913021F48A
:1030F00022960E94431805C0923029F422960E941D
:10310000FB172196EBCF933021F422960E945317A0
:10311000F8CF943011F02196F4CF229630E020E0E1
:10312000AE014F5F5F4F8053990B8A30910550F08D
:103130002150310930F38FE99FE00197F1F700C08A
:103140000000F6CFA29EB001A39E700D11249C0139
:10315000260F371F8981EA01E3CFE22FF0E0EB5021
:10316000FA4FB490822F86958695869590E0FC0163
:10317000EB51FA4FE4902770F12C022E02C0F59427
:10318000E7940A94E2F731E0E322FF24FC01EB52DA
:10319000FA4FC490D12C022E02C0D594C7940A9441
:1031A000E2F731E0C322DD24FC01EB53FA4F049136
:1031B00010E002C0159507952A95E2F701701127D6
:1031C000E114F10419F081EE0E94FB17C114D1043F
:1031D00019F086EE0E94FB178B2D0E944318C11434
:1031E000D10419F086EE0E945317E114F10419F08E
:1031F00081EE0E9453170115110509F482CF8CE26C
:1032000078CFCDB7DEB7EAE00C941334B0E0A0E09D
:10321000ECE0F9E10C94F7337C015B01C42FD22F71
:10322000FC0185818823A9F0409392060E94B21088
:103230009093910680939006C77081E001C0880F3B
:10324000CA95EAF70E944C17CDB7DEB7EAE00C94B6
:10325000133410919206141338C080919006909107
:1032600091060E94A3106C01B701C5010E94BD0C1C
:10327000C816D90650F5C0E2CD0F1D17C1F080E287
:10328000810F883048F4177081E0012E01C0880F4B
:103290000A94EAF70E944517C83048F481E09D2F50
:1032A000977001C0880F9A95EAF70E944C17802FFB
:1032B0000E944318C83040F6D77081E001C0880FE3
:1032C000DA95EAF70E944517BFCFC77081E001C0C9
:1032D000880FCA95EAF7F6CF2CB130E096E0359525
:1032E00027959A95E1F7A9014170552720953095CA
:1032F000217020937A0690917906291302C08823C1
:1033000049F0452B19F488EA0E94431880917A0607
:10331000809379060895CF93DF93EC010E942E0AE3
:103320009E01205E31092830310510F0209741F4CC
:103330000E944C178C2F0E94FB17DF91CF910895AC
:103340000E943B17F7CF662329F0209101072260E6
:10335000209301079C0130522115304308F499272E
:103360000E948B190895B0E0A0E0E9EBF9E10C941C
:10337000F9336C018B01E42E8091140182FF87C028
:10338000C091C705D091C805CC15DD0521F0C11449
:10339000D10409F07CC0809114018B7F80931401CB
:1033A00081FD6EC08091C5059091C605A801481B9E
:1033B000590B81E0209112013091130142175307FC
:1033C00008F480E08170F82E80911401F0FA81F900
:1033D00080931401FE0183E0F695E7958A95E1F765
:1033E000EE71FF27EF57FA4F20813181AE014F7008
:1033F000552781E090E002C0880F991F4A95E2F7B7
:10340000FF2009F43FC0822B932B9183808380910E
:10341000800581FF08C080911401806180931401B0
:1034200082E00E940B098091800585FF08C0809191
:10343000140180628093140180E20E940B096F2DB9
:10344000CE010E94A319EE2031F08091BC0585FFCA
:1034500002C086FF30C08091BF059091C0050E94D8
:10346000B50A8091C7059091C8059C01305221157D
:10347000304308F499270E94E3170E94611217C095
:1034800081E0A0CF8095909582239323BECFC60183
:10349000905281159043A0F4C60199270E94E3172A
:1034A0008091C7059091C8058C159D0531F3109347
:1034B000C6050093C505CDB7DEB7E8E00C9415341A
:1034C000C601ECCFAEE1B0E0E8E6FAE10C94EF33F0
:1034D0004B8B5C8B6D8B7E8B8F8B988F882349F009
:1034E0008091950190919601019690939601809319
:1034F0009501888D811110920107188A198A1A8AFC
:1035000086E0FE017396DE011A9601900D928A956F
:10351000E1F78091520382FF1EC08091A305909134
:10352000A405892BC1F00E94B2102091AA0130910C
:10353000AB01821B930B2091A3053091A405821748
:10354000930720F08091AC0182FFE7C10E94B61181
:1035500081110E94F9088E85882389F061E0CE01EF
:103560000A960E94590C6C018F8520E5C2162CE743
:10357000D20689F4882329F181E0809315010A8518
:103580001B852C853D854E855F85688979898A896B
:103590000E94EF28CDC031E5C3163CE7D30629F4DD
:1035A000882379F00E94A329EACF42E5C4164CE7AC
:1035B000D40639F4882329F0809115018111F2CFC6
:1035C000DBCF9CECE92E95E0F92E412CB12CA12CFF
:1035D00088248394912CBE016F5F7F4F7A8F698F0F
:1035E00022242394F7014081518166246A94762C29
:1035F00020E0822F90E0FC01EE0FFF1FE40FF51F8B
:10360000608171816115710531F0C616D70609F424
:103610003C012F5FEECF312CFFEF6F167F0609F4D0
:1036200048C0F701448130901501832D411180E09D
:10363000F82FF1703F2EF701558086819F859923E1
:1036400009F4F7C0332009F4F4C00091B7051091D4
:10365000B805511013C0A401062C01C0440F0A94F0
:10366000EAF7842B86838091C9059091CA0580175B
:10367000910720F41093CA050093C905C40102C044
:10368000880F991F2A95E2F70197F70126812817DD
:10369000190679F48091770690917806009709F4DD
:1036A0004BC00E94A3100817190708F045C0F70186
:1036B00024824328FFEFAF1ABF0A27E0E20EF11C75
:1036C00038E0A316B10409F08DCF8F85882309F463
:1036D00010C1442009F40DC10E94B21090937806E5
:1036E0008093770680910406883010F591E0980F5A
:1036F0009093040699E0FE013A96DE01119601903E
:103700000D929A95E1F74DE0849FC00111248B5FE3
:10371000994F29E0FE013196DC0101900D922A9526
:10372000E1F72FEF3FEFFC0132872187D486C38674
:103730006E96E2E10C940B348091750650917606FA
:10374000982FF0E0E0E0851314C090937506EE1614
:10375000FF0609F4AECF90E0FC01EE0FFF1FE35926
:10376000F94FB182A08201968370992780937606E3
:10377000A0CF682E712CF301EE0FFF1FE359F94F14
:1037800020813181F7E0F29FD001F39FB00D112429
:10379000A453BA4F2D913C9111973E8F2D8F40E04D
:1037A00020E030E0E32FF0E0EE0FFF1F6D8D7E8D07
:1037B000E60FF71F0081118101151105E1F0F701F6
:1037C0000190F081E02DFC8FEB8F20E005C0061703
:1037D000170709F4432D2F5FE22FF0E0EE0FFF1FD4
:1037E0006B8D7C8DE60FF71F60817181611571050E
:1037F00071F73F5FD7CF4423C9F0F701231708F0D3
:10380000FD012482EE16FF0621F490937506342EF6
:1038100050CF981305C0AE17BF0711F49F5F937088
:1038200093012F5F3F4F822F83708DCFF0E0E0E058
:10383000F7CF90E0511020C0B40102C0660F771F8F
:103840002A95E2F79B01215031098217930731F441
:10385000442309F44CC0C5010E94EA05C401062CAA
:1038600001C0880F0A94EAF7982F9095F701868196
:1038700089238683352C1DCFAC01062C02C05595BB
:1038800047950A94E2F7BA01617077279C012150AD
:10389000310982239323892B31F5672B21F1F7011D
:1038A00082819381892BE1F0E98DFA8D27E01192D5
:1038B0002A95E9F70E94B210282F8B839C8334E06D
:1038C0003D83F70182819381782F888799870981C9
:1038D0001A813C8144E05E816F81892F0E94EF282C
:1038E000F7011582BBCFF42FF1705F2EB7CF532CA9
:1038F000B5CF9091750680917606981729F00E94B1
:10390000B229411015CF3BCE0E945A291092780659
:10391000109277060E941806F4CF82E00E94ED090B
:1039200015CEA6E0B0E0E7E9FCE10C94FF339093FC
:10393000E3018093E201811520E2920730F40E94B6
:10394000E3172696E2E00C941B3480EF89838A8388
:103950000E94B2108160682F9C838B8349815A81B9
:103960007C8181E090E00E94621AEBCF0F931F935D
:10397000CF93DF938C01EB016CEE71E08C2F0E94F2
:10398000A90C892BA1F48091BF059091C0050E94DC
:10399000B50ADD27CC51DE4F8881F80112821882EA
:1039A0008330F1F048F4813059F0823081F0DF91BA
:1039B000CF911F910F9108958430B9F08530B9F7F8
:1039C0008091EC019091ED01009789F306C0809100
:1039D000EE019091EF01009799F30E94911CE7CFBF
:1039E0008091F0019091F101F6CF8091F2019091D8
:1039F000F301009791F72091EC013091ED01809156
:103A0000EE019091EF0121153105F1F2009729F7B0
:103A1000C901E3CFA6E0B0E0E0E1FDE10C94FF33A3
:103A20009093E3018093E201811520E2920730F444
:103A30000E948B192696E2E00C941B3480EF898358
:103A40008A830E94B2108160682F9C838B83498196
:103A50005A817C8181E091E00E94621AEBCFCF9382
:103A6000DF93EC010E940A1D8091BF059091C00573
:103A70000E94B50ACE010E94911CDF91CF9108955A
:103A80000F931F93CF93DF938C01862F6CEE71E021
:103A90000E94A90C892BB1F4C091EC01D091ED01E9
:103AA000209781F0F8018281833051F4CE010E9489
:103AB0002F1DCE010E942F1DCE010E942F1D02C07E
:103AC0008430D0F7DF91CF911F910F9108950F931C
:103AD0001F93CF93DF938C01EB016CEE71E08C2F81
:103AE0000E94A90C892B09F05CC0FE01FF27D801B8
:103AF00012968C911297EC51FE4F8130B9F41596C5
:103B00009C9192FF02C080830AC090FFFCCF82E0AC
:103B100080838091EE019091EF010097B9F480913C
:103B2000EC019091ED010097E1F110C08230B9F500
:103B300015968C9182FD28C080FD0BC083E08083A8
:103B40008091F0019091F101009701F10E940A1D0E
:103B500028C084E080838091F2019091F301009766
:103B6000A9F78091EC019091ED010097F9F00E9486
:103B70002F1D8091EE019091EF01009739F7809110
:103B8000EC019091ED01E2CF85E080838091EC0122
:103B90009091ED01009729F00E942F1DF0CF86E053
:103BA0008083DF91CF911F910F9108958091EE0155
:103BB0009091EF01B8CFA7E0B0E0E1EEFDE10C9409
:103BC000EF337C01DC0114968C91882309F457C1F2
:103BD00061E0C7010E94590C8C01F701858188239F
:103BE00019F180919306909194060097E9F00817D7
:103BF0001907D1F09927F4E0880F991FFA95E1F79A
:103C0000FC01E550FE4F2081246020838A509E4FA6
:103C1000DC010D931C930E943A121092010761E09F
:103C2000C7010E94590C8C01F7018581882309F492
:103C3000B1C0C80197578038910508F0DEC0D02E7A
:103C4000FFE0F01708F40BC18FEF93E00E947D3482
:103C5000811105C10DEC11E0D11036C019821A8214
:103C60001B821C8299249A9468013FEFC31AD30ADD
:103C7000C8010E947D3489831A82882309F4EFC029
:103C8000813009F081C0580142E0A40EB11CC60188
:103C90000E947D34C82E8A83882309F4E0C0C501C0
:103CA0000E947D34D82E8FEF8C0D8330D8F45801CC
:103CB00053E0A50EB11CDB82DD2021F0CE01019680
:103CC0000E9465188501D0CF011524E0120709F480
:103CD000C6C0C8010E947D34811101C0DA940F5F13
:103CE0001F4FBACF8BEF8C0D833030F5C801039690
:103CF000DB825C01DD2031F35801A4E0AA0EB11C87
:103D00000E947D348C838823E9F28B819C818130F1
:103D1000BFEF9B0710F0982F8827E6E0CE1631F012
:103D2000F7E0CF1631F00E942F1DCCCF0E940A1D64
:103D3000C9CF0E94911CC6CF24E0C212C3CF580144
:103D400034E0A30EB11CC80103960E947D34DD202F
:103D500009F485C0882309F482C08150990B989E8C
:103D60009001999E300D11244D2D4150550BCA01E3
:103D7000820F931F019708F4A5CFAFE9BFE0119719
:103D8000F1F700C00000F6CFCE0101960E94651841
:103D9000560198CF6801E7E5DE1AFFEFCF16D10490
:103DA00009F058F56CEE71E08C2D0E94A90C892B5E
:103DB00021F5C60174E0880F991F7A95E1F7FC019F
:103DC000EA50FE4F22812130A1F52091EC01309183
:103DD000ED01232B91F02091EE013091EF01232B87
:103DE00061F02091F0013091F1014091F201509188
:103DF000F301242B352B232B21F1D70115965C9051
:103E0000552009F440C00E35BCE71B0729F10F35DA
:103E1000ECE71E0741F00D35FCE71F07A1F5809187
:103E200000018823C9F01092000180E00E947D17F4
:103E300016C0223011F72091F0013091F101232BAF
:103E4000E1F2FC01E550FE4F20812E7F20838A5055
:103E50009E4F0E943A12D1CF81E080930001809161
:103E6000AC01877061F0D70115968C91882339F0E9
:103E70008091520382FF03C082E00E94ED092796E1
:103E8000E2E10C940B3480910001882309F440C6D0
:103E9000480120EE821A91084090B7018091A90153
:103EA000482A80918005482A38E08316910408F05A
:103EB00086C098012770332781E090E001C0880F09
:103EC0002A95EAF7552009F477C0482AD7018D9141
:103ED0009C910E945A0921E030E0390102C0660C31
:103EE000771C8A95E2F7E0918E06F0918F06FF83AA
:103EF000EE8320909201309093011D822D81E22F5C
:103F0000F0E0EE0FFF1FE953FD4FC080D180C114D8
:103F1000D10409F458C6411005C0D60112968C91FF
:103F2000811189C0F601838190E086219721892B38
:103F300009F481C08085982F977009F487E0F8E034
:103F40008F16910408F055C0552009F44EC086958F
:103F50008170882309F46FC0D601AD90BC900A151A
:103F60001B0519F4552009F466C0EE81FF81CE16B9
:103F7000DF0609F460C0D6011D96ED91FC913097E3
:103F800021F08081882309F456C0642DC6010E9467
:103F9000CA05882309F44FC00A151B0509F07BC622
:103FA0000115110509F47CC651107CC6A214B30496
:103FB00009F041C0512C76C68095482287CF552004
:103FC00009F4EAC510939301009392010E94E90459
:103FD0006093850670938606809387069093880683
:103FE00010928D0610928C0671CF82FB882780F983
:103FF000B0CF552001F18170ACCF0E94531771C62C
:104000000497813A910558F46A2D8AE891E00E945C
:104010000205552009F47CC50E94D01120CF0E94D2
:10402000D0118FE39CE90197F1F700C000008A2DC1
:104030000E94FB17EECF9D819F5F9D835FCFFC01A8
:10404000208131810217130709F05BC551105BC550
:1040500010928B0680E00E947D175AC5902F812F09
:1040600096C5F9014485558566857785C9010E9405
:104070007305D60115968C9181FFB9C5C6010E94C2
:10408000211280919306909194060817190709F060
:10409000AEC51092940610929306A9C59091140192
:1040A000892F8E7F90FF8160809314010E9461129E
:1040B000C9C5809114018E7FF7CF809114018F7E46
:1040C000013E110531F0053E1105E9F4809114011E
:1040D0008F7D809314018091140180FF19C0D70156
:1040E00015968C9108321105F0F40E31110508F087
:1040F0006BC00430110548F5882351F01092C805B3
:104100001092C70505C0C80190528115904318F759
:10411000F801E851FC47E730F10508F09DC5ED5185
:10412000FB4C0C943A340933110558F40D32110547
:1041300018F40B32110501F79091BC0592FDDCCF0C
:1041400008C004361105C1F3D7CF9091BC0594FD8A
:10415000D3CF882309F4A6C08091B7019091800540
:10416000892B8D7FB1F11092C8051092C7058091FF
:10417000BC0581FD2EC0F80143E0F695E7954A9510
:10418000E1F7EE71FF27EF57FA4F98012F703327B1
:1041900081E090E002C0880F991F2A95E2F7809590
:1041A000909520813181822393239183808360E0E5
:1041B000C8010E94A3198091B7018D7F0E947611DA
:1041C00082E00E94ED094BCE9091BC0593FD94CF07
:1041D000C0CF89E0F701AAECB1E001900D928A9579
:1041E000E1F71092CD011092CC018091C70590911A
:1041F000C80508171907D1F52091BC0525FF36C061
:104200003091140131FF02C026FF30C02091C50556
:104210003091C6055601A21AB30AB7010E94BD0C1F
:10422000A816B90618F58091800581FF08C0809115
:10423000140180618093140182E00E940B09809137
:10424000800585FF08C0809114018062809314016D
:1042500080E20E940B096091140166956170809163
:10426000C7059091C8050E94A319F9CD8091B701A7
:1042700090918005982B2091140191FB21F92093B6
:1042800014018D7F0E9476111093C8050093C70515
:10429000D092C605C092C5058091140184608093B8
:1042A00014018ECF970140E0B601C8010E94B319F6
:1042B000D6CD06E221EE41EE6AE17CE7C7010E941D
:1042C0000619CDCD07E225EE45EE6BE17CE7F6CF92
:1042D00006E221EE40EE68E17CE7F0CF07E225EE52
:1042E00044EE69E17CE7EACF06E221EE42EE6CE1C2
:1042F0007CE7E4CF07E225EE46EE6DE17CE7DECF1A
:1043000008E221E045EE6EE17CE7D8CF80915103D1
:1043100081608093510395C080915203886080939F
:1043200052038FC0809151038260F3CF809151037B
:104330008460EFCF809151038860EBCF809152036E
:104340008160EDCF809152038260E9CF809151036B
:104350008061DFCF809151038062DBCF8091510378
:104360008064D7CF0E948012809151038068D1CFA2
:10437000809151038C60CDCF809152038360CFCF69
:10438000809151038E7FC5CF80915203877FC7CF25
:10439000809151038D7FBDCF809151038B7FB9CF29
:1043A00080915103877FB5CF809152038E7FB7CF25
:1043B000809152038D7FB3CF809151038F7EA9CF1F
:1043C000809151038F7DA5CF809151038F7BA1CF29
:1043D0000E948012809151038F779BCF809151036F
:1043E000837F97CF809152038C7F99CF8091510327
:1043F00082FB992790F921E0922790FB82F990FBAC
:1044000083F987CF80915203982F909591708E7F7A
:10441000892B90FB81F983CF90915103892F8F7B5A
:1044200096FF806476CF0E94801290915103892F6D
:1044300097FB87F980586DCF61E08EE090E00E9495
:104440009B34609151037091520384E090E00E948C
:10445000B9340E94801203CD60E0EFCF90915103F8
:10446000892F8F7E94FF806154CF90915103892FC3
:104470008E7F90FF81604DCF90915203892F877F6F
:1044800093FF88604CCF0631FCE71F07B9F5809198
:104490008005982F9A7A3091BB0530FF04C0482FD1
:1044A000447409F090E031FF04C0482F417109F0D5
:1044B00090E032FF04C0482F487809F090E033FFC5
:1044C00003C0827209F090E0222371F081E0911123
:1044D00001C080E08093940169E2911165E38AE86C
:1044E00091E00E94020598CD80919401811104C051
:1044F00089E20E94F50490CD85E3FBCF07373CE7C6
:10450000130709F45AC008374CE7140709F460C0D0
:10451000222381F003305CE7150709F479C008F025
:104520005CC001159CE7190709F465C001301C4700
:1045300009F474C0F70187819085009709F47CC065
:104540000E94DB07182F092FF701B580C680C2949F
:104550003FE0C3228091AC01877001F1AB2CBB20FE
:10456000F1F0892F807F803461F080E2810F883004
:10457000A8F0892F807E803221F4123078F0CC2090
:1045800069F08091520382FF09C082E00E94ED0928
:104590008091AC018770AA24A3948111A12C902E44
:1045A00092942FE09222FBE0F91508F4B7C0E92DB0
:1045B000F0E0E651FB4C0C943A3481E0222351F0B8
:1045C0000E94040A43E062E081E00E94C00947CCF7
:1045D00082E0F4CF0E94E009F5CF0B35BCE71B0762
:1045E00049F10C35ECE71E07D9F00A351C4709F0F4
:1045F000A1CF81E01CC00E9480122FEF34E34CE079
:10460000215030404040E1F700C000000E94D80433
:104610006FEF7FEF90E080E00E94B9340E941E1798
:104620008091520382FB882780F991E089270E94BC
:104630005E0F80CF80E0FBCF8581008111818823D0
:1046400069F0C8010E94E40BD82E682FC8010E94AF
:10465000A209B8018D2D0E94B60B72CFC8010E942D
:104660005A09D82EF6CF202F2F70D22E802F807F80
:1046700019F0D29490EFD922BB20A9F0DD2059F097
:1046800080E2810F883010F0111107C08D2D0E943B
:1046900012090E94D011812F3FC080910107D82AB2
:1046A000D0920107F6CF812F0E945317DD20B1F180
:1046B00080E2810F883010F0111104C08D2D0E940E
:1046C0000B0903C08D2D0E9404090E94D01126C041
:1046D000302F3F70D32E802F807F803219F0D294FC
:1046E00080EFD822112351F0113009F498C0BB207B
:1046F00009F4A4C0CC2009F448C0CDCF8091520366
:1047000082FD3FC0BB20B9F1DD2029F08D2D0E9434
:1047100012090E94D01180E00E94FB17E92DE85099
:10472000FF0B349710F40E946605812F902F0E9492
:10473000130A8111BDC11092960110929501AA2011
:10474000A9F08091AC0180FD11C0F701158286951A
:10475000869586950E94040AC7010E94DB1D809100
:10476000AC018695869586950E94E00960E0C701B8
:104770000E94590C84CB80E00E945317DD2071F217
:104780009DCFBB2091F1C11004C08D2D0E944C170C
:10479000C5CF41E0C41211C08090B7018D2D882192
:1047A000D81609F4BBCF0E94B2109093B601809343
:1047B000B501D828D092B701B1CF8091BD05823024
:1047C00008F4ACCFC812AACF8D2D0E944C178D2DA6
:1047D0000E948A118091A9019D2D9823D91609F470
:1047E0009DCFD82AD092A90199CFC1100AC08D2D92
:1047F0000E9445178D2D0E948A118D2D0E941F0940
:104800008DCF8091BD05823008F488CF51E0C5126C
:1048100085CF809180058D2109F480CFE8CF8091EC
:10482000C305BB2021F08C1508F478CFAECFC81695
:1048300008F074CF8D2D0E94451770CFCC20D1F396
:104840008091C1059091C205193321F08091BF0577
:104850009091C0050E94B50A812F0E9453175ECF28
:10486000802F86958695837069F0813009F056CF48
:10487000812F902F9370B11002C080E090E00E94D1
:104880001C054CCF812F902F9370B11002C080E097
:1048900090E00E94410542CF802F837091F5B110C6
:1048A0003DCF412F429546954770440F440F812FCD
:1048B0008F70042E01C0880F0A94EAF7212F20710F
:1048C00014FF07C02FE030E001C0220F4A95EAF73D
:1048D0002095302F369536953370323069F050F48C
:1048E0004091C101313029F0822B84230E94100AAB
:1048F00015CF842B822BFACF282B8091C1018227E0
:10490000F5CF8695BB2011F0802F8170882309F4A4
:1049100005CF412F429546954770440F440F812F94
:104920008F70042E01C0880F0A94EAF7212F20719E
:1049300014FF07C02FE030E001C0220F4A95EAF7CC
:104940002095302F369536953370323069F050F41B
:104950004091C201313029F0822B84230E94BD098D
:10496000DDCE842B822BFACF282B8091C2018227A7
:10497000F5CF802F8F70D82EBB2021F00E94040A23
:10498000812F04CF812F0E9445178D2D0E94E009B1
:10499000C5CE123F89F160F4103FB9F0113F81F0AC
:1049A000BB2009F480C0C11076CE802F8F7128C043
:1049B000133F49F1143FA1F78091520382FD2FC0AC
:1049C000802F8F71BB2011F31BC08091C305BB20CA
:1049D00079F0C81608F0A2CE202F2F7181E090E068
:1049E00001C0880F2A95EAF79091C2018927B6CFB6
:1049F0008C1508F493CEF0CF802F8F71B110C6CFF5
:104A00000E94040A8BCE80E0BB2009F4A7CF81E08E
:104A1000902F9F7101C0880F9A95EAF79FCF8091E0
:104A2000BD05823040F1BB20D1F09091AC01977070
:104A3000943041F40E941809802F8F710E94E00980
:104A4000A12C6CCEC816E0F7902F9F71D92E892F1C
:104A50000E94040A63E08D2D0E949F11F1CFC816B9
:104A600030F00E94180964E0802F8F71F5CF81E04B
:104A70000E94ED09E5CFBB2059F0A02FAF71DA2ECF
:104A80008A2F0E94040A63E08D2D0E949F1146CE5A
:104A900081E00E94ED09B1E0BC1508F03FCE82E054
:104AA0000E94ED093BCEC110CBCE802F8F716ECF0F
:104AB000BB2019F0C1103FCE42CEC1103CCE20E049
:104AC000D7014C9111965C91119712966C911297A7
:104AD00013967C91139714968C91149715969C912C
:104AE0000E94340C8091BE0583FF25CE80919501F4
:104AF00090919601029709F01ECE812F0E944318D3
:104B00001ACE552029F0DC0118968C9185FFA2CA97
:104B1000C80197558F3F910511F008F068C0F80162
:104B2000FF2754E0EE0FFF1F5A95E1F79F012A502F
:104B30003E4F6901D70115968C91E550FE4F90814B
:104B400080FB90F99083882309F48BCA0E94B210ED
:104B50009093C9018093C801F60182818F5F82839F
:104B60008091010790918005892B83838091B70103
:104B700084834681578166857785C6010E947305C7
:104B8000D60115968C9181FF69CA90E080E09093E0
:104B90009306809394062BC080919201909193018B
:104BA0000817190781F41092930110929201109244
:104BB000850610928606109287061092880610923B
:104BC0008D0610928C0680918E0690918F0600972C
:104BD00009F49ECFA8E08A16910408F030CA642D2B
:104BE0000E94CA05811103C081E00E947D17809157
:104BF000BC0580FF8DCA0E94B2106C01F70185814F
:104C0000882309F45ACA8091140182FF08C02AEC53
:104C100031E040E0B60190E080E00E94B319043139
:104C2000FCE71F0709F445CA05312CE7120709F410
:104C300035CA03313CE7130729F4809114018160E0
:104C400080931401C80190528115904308F043CA23
:104C50001092C8051092C705F7012581222309F497
:104C600012CC10929206C8019057839708F00BCC93
:104C700084E090E00E948534909352038093510326
:104C8000F801E150F047E232F10508F03FCBEA507D
:104C9000FB4C0C943A34A114B10409F087C9512C8F
:104CA000B12CA12C80E00E947D17D0928F06C0927B
:104CB0008E0681E080938B06D60115968C918093A9
:104CC000890651100EC0AB2861F0F60180819181F8
:104CD0009C0124503109213A310508F08EC90E9407
:104CE000F504D6011696AD90BC90C5019A95811534
:104CF0009F4110F4E0EEBE2277247394C501019722
:104D00008F339E4708F0712CD6011996ED91FC91D6
:104D10001A97309731F01B966D917C9181E009953F
:104D20007822772079F0F601868197810E942E0AF9
:104D300080938A06C501F8E08F16910408F060C9D7
:104D40000E9479050E94D01164C9B0E0A0E0EBEAAE
:104D5000F6E20C94FA338091A601807F09F054C0EA
:104D60008091A501882309F44FC0E091000789E0F4
:104D7000D82E8091B7068E1709F446C00E2F10E08A
:104D8000ED9DF0011124E854F94F8481882309F442
:104D900040C0D09EE001D19ED00D1124FE01E85408
:104DA000F94F91818091A101981333C09081809136
:104DB000A00198132EC0858181112BC0E280F38061
:104DC0008091A2019091A301E81AF90A60E080EABB
:104DD00091E00E94590C60EA71E00E94BD0CE81657
:104DE000F906B8F48091A6018F7080618093A601C6
:104DF000C254D94F88818F708061888380EA91E0A6
:104E00000E94DB1D0E942909CDB7DEB7E7E00C94B4
:104E10001634F8013196E770ACCFA8E1B0E0E3E1D9
:104E2000F7E20C94F2338C0186E0F801DE01539630
:104E300001900D928A95E1F7D80114967C90149711
:104E40001596EC9080EAA82E81E0B82E8091A401FE
:104E500081112AC0711003C0FF24F3941CC0EE20FE
:104E6000F9F0C8010E94200CF82E8823C9F089E0CF
:104E7000F801A0EAB1E001900D928A95E1F78091E6
:104E8000A401813031F48091A0019091A1010E9490
:104E9000130C0E94A5268F2D6896EFE00C940E341B
:104EA000C8010E94DB1DD8CFF80150806180C2800C
:104EB000D38060E080EA91E00E94590CF090A50157
:104EC0008091A2019091A3014601881A990A60E09D
:104ED00080EA91E0FF2009F428C10E94590C60EAA1
:104EE00071E00E94BD0C8816990608F0D1C07720A9
:104EF00009F4B2CF8091A601382F307F2091A10113
:104F0000D80111969C911197311171C029131FC0BE
:104F10002091A0019C9129131AC04091A7015091A2
:104F2000A80117962D913C914217530781F4E11087
:104F300054C08F7080618093A60180EA91E00E9446
:104F4000DB1D8091A601F8018683F12CA4CFE1102E
:104F500044C0662D852D0E945A03E82E882381F0D7
:104F60008091BE0580FFF1CF80EA91E00E94DB1DB9
:104F700089E0E0EAF1E0DF011D928A95E9F7E5CFEB
:104F80005B8A6C8A8B899C890E94130C292F22953D
:104F90002F70243058F49F70223088F0992399F0B4
:104FA000F8019681907F79F4FE2C75CF2A5F2F70DF
:104FB000223068F0C8010E94DB1DEF2CF5CF992349
:104FC00011F0882389F3805E883070F3F3CF803F3F
:104FD00058F3815F833070F7E7CF8091A60181603D
:104FE0008093A6018091BE0581FDAFCFBDCF29136F
:104FF00020C02091A0019C9129131BC04091A701C2
:105000005091A80117962D913C911897421753077C
:1050100081F4E1100EC016968C93C8010E94DB1D2E
:1050200089E0F801A0EAB1E001900D928A95E1F7DC
:1050300032CFC8010E94200C882309F431CFEE2022
:1050400009F42ECF8091A6018032B8F02091A00102
:105050003091A1013B872A87DD86CC869091A401FF
:105060009E871F86888B8091A7019091A8019A8BBB
:10507000898BCE010A960E94DB1D89E0F801A0EA27
:10508000B1E001900D928A95E1F70E94A526E4CE49
:105090008091A601982F907F09F466CF772009F4BC
:1050A000DBCE2091A101F801918129131AC0209132
:1050B000A0019081291315C04091A7015091A8012A
:1050C000278130854217530761F4E1100AC08683B7
:1050D000C8010E94DB1D89E0D5011D928A95E9F780
:1050E000DACEC8010E94200C882309F4D9CEEE2024
:1050F00009F4D6CE8091A601803208F4BECF20916B
:10510000A0013091A1013A832983DC82CB82909166
:10511000A4019D831E828F838091A7019091A80195
:1051200099878887CE010196A6CF0E94590C60EA24
:1051300071E00E94BD0C8816990608F04AC07720DD
:1051400009F48ACEFE2CEE2009F4AACE9091A1019A
:10515000F801818198132FC09091A001808198134C
:105160002AC02091A7013091A80187819085281736
:10517000390709F58091A2019091A301C81AD90AB3
:10518000F8ECCF16D10408F04BCF9091A60190FD1A
:1051900047CF907F09F444CF8091A601D80116969D
:1051A0008C931697903F09F438CF982F907F905F9B
:1051B0008F70892B30CFC8010E94200C81115DCFE8
:1051C0008091A60181608093A601C8010E94DB1D29
:1051D00062CE89E0F50111928A95E9F75CCEA2E1F1
:1051E000B0E0E5EFF8E20C94FD330A871B872C87CB
:1051F0003D874E875F87688B798B8A8BCE010A96B5
:105200000E940D2781110CC089E0FE013A96DE0153
:10521000119601900D928A95E1F78E8581110BC050
:1052200019E0809100079091B706891331C062960A
:10523000E4E00C9419342091B70630E0C9010196DE
:1052400087709927409100074817190699F099E04F
:10525000929FD001939FB00D1124A854B94FFE0125
:10526000319601900D929A95E1F78093B7060E94CE
:105270002909D6CF0E9480121092B706109200071B
:1052800089E0E0EAF1E0DF011D928A95E9F7C8CFF5
:10529000819FC00111248854994F0E940D278823B3
:1052A00031F28091000790E00196877099278093F2
:1052B0000007B7CFEF92FF920F931F93CF93DF9327
:1052C00080910406882361F0E091CB058DE0F82EF3
:1052D00080910406E81748F0109204061092CB055E
:1052E000CDB7DEB7E6E00C941734EE24E394EE0E6F
:1052F000E092CB05CE2FD0E0EF9DF0011124EB5FC3
:10530000F94F84818823E9F087819085892B21F4E6
:1053100081859285019659F4008111812281338122
:10532000448155816681778180850E94EF28FC9EAB
:10533000F001FD9EF00D1124EB5FF94F14821092E5
:105340000107EE2DC5CF10927806109277061092C5
:10535000150180917606809375060E9418060E94BA
:105360005A290895B0E0A0E0E8EBF9E20C94F0339C
:10537000C091750697E0992E01E010E02DE0322EE5
:1053800034E0432E55245394809176068C1309C043
:105390000E945A290E941806CDB7DEB7E1E10C94AD
:1053A0000C34D0E0FE01EE0FFF1FE359F94F80816E
:1053B0009181989ED001999EB00D1124A453BA4FAB
:1053C00014962C911497211159C060900406E5E0C1
:1053D000F6E030E020E0812C5D01261508F04CC09D
:1053E000E384F484D501CD90DC906FEF7FEF712CD6
:1053F000472D50E0DA01AA0FBB1FAC0DBD1D0D906B
:10540000BC91A02D109731F0EA16FB0609F4BA0101
:105410007394EECF6F3F7607A9F1D80102C0AA0FAF
:10542000BB1F6A95E2F78A2AB801072C02C0660FF3
:10543000771F0A94E2F7AB01415051098416150613
:1054400001F5329EF001339EF00D1124EB5FF94F10
:10545000989ED001999EB00D1124A453BA4F129674
:105460002D913C91139730872783448210821182BB
:105470009287818715965C920E94EA052196C370F7
:1054800083CF14822F5F3F4F3D96A7CFA6E0B0E0B9
:10549000ECE4FAE20C94FD330E94B2108C0180918E
:1054A000B8019091B9018017910781F019821A8291
:1054B0000E94B210682F49815A81792F80E090E0D4
:1054C0000E94621A1093B9010093B8012696E4E095
:1054D0000C9419341F921FB61F9211248F939F931F
:1054E000AF93BF9380919B06811113C080919C065E
:1054F00090919D06A0919E06B0919F064196A11D98
:10550000B11D80939C0690939D06A0939E06B09338
:105510009F06BF91AF919F918F911F901FBE1F90CB
:105520001895CDB7DEB7C255D1090FB6F894DEBFD6
:105530000FBECDBF85B7806885BF85B7806885BF42
:1055400084B7877F84BF0FB6F894A89580916000D8
:10555000886180936000109260000FBE80E890E048
:105560000FB6F89480936100909361000FBE81EDB7
:1055700096E090938901809388010E94AC060E9476
:10558000670D0E94DB0C0E94840C0E9479030E942C
:105590001A048091E20084608093E2007894809104
:1055A000AD068823A1F01091E9001F709091EC00E6
:1055B000892F817090FD80E8182B1092E90080916E
:1055C000E80083FD0E9496121F701093E90082E0AC
:1055D00084BD93E095BD9AEF97BD80936E000E94C5
:1055E0003A0B811102C00E94931681E08093D5018D
:1055F00025982D9A24982C9A8FE891E00197F1F73D
:1056000000C000002091D50146ED51E0FA018E2F37
:10561000841B821708F4C0C084EF0E94D30685EF74
:105620000E94D30686EF0E94D30687EF0E94D3061E
:1056300086E30E94D30682E30E94D30683E30E949E
:10564000D30681E30E94D30684E0ECEDF1E0DF01B4
:10565000282F1D922A95E9F7EDEBF1E0DF011D926D
:105660008A95E9F790E080E00E948534863E9E4F5F
:1056700021F40E943A0B811168C066EE7EEF90E043
:1056800080E00E94B93460E082E090E00E949B34A8
:1056900081E08093C10161E083E090E00E949B344F
:1056A00060E074E184E090E00E94B93460E086E05C
:1056B00090E00E949B346FEF87E090E00E949B3463
:1056C00040E050E0BA0188E090E00E94AD3460E034
:1056D00084E290E00E949B3460E087E190E00E94C9
:1056E0009B3460E08CE090E00E949B3460E08DE0B1
:1056F00090E00E949B3419821A821B821C821D82B8
:105700001E821F82188648E050E068E170E0CE01FA
:1057100001960E948B3440E050E0BA0180E290E0B4
:105720000E94AD3480E00E94BF0A0E94931640E0C0
:1057300050E0BA018FE090E00E94AD3440E050E0CC
:10574000BA0183E190E00E94AD3482E090E00E94D3
:105750007D348093C30184E090E00E94853490936F
:105760005203809351030E94BE10EFEFF6E721E051
:10577000E150F0402040E1F700C000000E94BE1060
:105780008091DC0180FF14C06FEF7FEF90E080E03C
:105790000E94B9340E94D80483B185FB882780F920
:1057A0001C9904C090E0892B819331CF92E0FBCF0C
:1057B00083E090E00E947D340E94100A10927605EA
:1057C00080E8809353030E94EF326BE070E08BE53A
:1057D00091E00E94AB0D8823E9F18091760565E0A8
:1057E00070E081FD4DC086E591E00E94AB0D8823FD
:1057F00089F16DE070E084E491E00E94AB0D8823B4
:1058000049F10E94E904605A75418F4F9F4F6093A0
:105810007A0570937B0580937C0590937D05E6E780
:10582000F3E080E092E0DF019C011D9221503040C6
:10583000E1F7F0935503E09354038FEF9FEF9093BC
:1058400079058093780581E080937F0580937E05BC
:10585000109277056E98769A81E00E946C1981E02B
:1058600091E0909398068093970688E1282E312C3A
:105870008CED91E024E0280F63962FAF6397C5C2AB
:1058800081E591E0B2CF8091AD06843019F10E949C
:10589000D50D10929B060FB6F894A8952092600043
:1058A0000FBEF092600083B7817F846083BF83B7AF
:1058B000816083BF7894889583B78E7F83BF0FB64E
:1058C000F894A895809160008861809360001092A0
:1058D00060000FBE8091AC06882361F00E94BE106C
:1058E000ECEDF1E0819181112EC663963FAD639797
:1058F0003E13F8CF8091AD06853009F4C4CF0E94E5
:1059000080120E9466058AC298139DC20E94462A90
:10591000912C80918C0690918D06892B09F43EC0C4
:1059200040918106509182066091830670918406B1
:105930002FB7F89480919C0690919D06A0919E06A9
:10594000B0919F062FBF841B950BA60BB70B409100
:105950007D0650917E0660917F06709180068417C7
:105960009507A607B707D0F080918C0690918D0619
:105970000E948B1910928D0610928C06109281064F
:1059800010928206109283061092840610927D0671
:1059900010927E0610927F06109280060091930668
:1059A000109194060115110549F18091C80190915B
:1059B000C9010E94A3107C01BE01655D7F4F89E093
:1059C000DB011D928A95E9F7C8010E94BD0C8E1576
:1059D0009F05A0F480919306909194069927A4E0E6
:1059E000880F991FAA95E1F7FC01E550FE4F208131
:1059F00022FD04C08A509E4F0E943A1280911501E8
:105A00008823F9F080917706909178060097C9F085
:105A10000E94A3102091C9053091CA0528173907A3
:105A200080F490917506809176069817E9F10E94AE
:105A3000B2291092CA051092C905109278061092E8
:105A4000770680E00E946C198091BC0580FF1EC023
:105A50008091140182FF1AC00E94B2102091C505E6
:105A60003091C605AC01421B530B209112013091BD
:105A700013014217530750F02AEC31E041E0BC011A
:105A80008091C7059091C8050E94B31910E000E00D
:105A900052E0852E64E0A62EB12C7DEF772E662491
:105AA0006394ECEF5E2EA9C00E945A2910927806EA
:105AB000109277060E941806C4CFE12EF12CE3B1B4
:105AC000E5FBEE27E0F91C99A6C080E08E2BD701FC
:105AD000AA52BE4FEC919E2F9370891709F48CC087
